:100000000C945D000C9485000C9485000C94850084
:100010000C9485000C9485000C9485000C9485004C
:100020000C9485000C9485000C9485000C949F031F
:100030000C9485000C9485000C9485000C9485002C
:100040000C9455030C9485000C9423030C94FD022E
:100050000C9485000C9485000C9485000C9485000C
:100060000C9485000C94850000000008000201003B
:100070000003040700000000000000000000000072
:10008000250028002B0000000000240027002A0083
:10009000040404040404040402020202020203032E
:1000A0000303030301020408102040800102040836
:1000B0001020010204081020800411241FBECFEF7D
:1000C000D8E0DEBFCDBF11E0A0E0B1E0E8EDF2E1A5
:1000D00002C005900D92A639B107D9F722E0A6E932
:1000E000B1E001C01D92AC36B207E1F710E0CDE5FA
:1000F000D0E004C02197FE010E947207CC35D107E1
:10010000C9F70E94F7040C946A090C94000090E06F
:10011000FC01EC55FF4F249180579F4FFC018491C7
:10012000882399F090E0880F991FFC01EA57FF4F50
:10013000A591B491FC01E458FF4F859194918FB73C
:10014000F894EC91E22BEC938FBF0895AF92BF929D
:10015000CF92DF92EF92FF920F931F93CF93DF9393
:100160006C017B018B01040F151FEB015E01AE18C2
:10017000BF08C017D10759F06991D601ED91FC91E4
:100180000190F081E02DC6010995892B79F7C50111
:10019000DF91CF911F910F91FF90EF90DF90CF9063
:1001A000BF90AF900895FC01538D448D252F30E012
:1001B000842F90E0821B930B541710F0CF96089574
:1001C00001970895FC01918D828D981761F0A28DA1
:1001D000AE0FBF2FB11D5D968C91928D9F5F9F7367
:1001E000928F90E008958FEF9FEF0895FC01918D1D
:1001F000828D981731F0828DE80FF11D858D90E08A
:1002000008958FEF9FEF0895FC01918D228D892F26
:1002100090E0805C9F4F821B91098F73992708950E
:1002200080EA91E00E94040121E0892B09F420E09A
:10023000822F089580E090E0892B29F00E94100120
:1002400081110C9400000895FC01A48DA80FB92F12
:10025000B11DA35ABF4F2C91848D90E001968F73EE
:100260009927848FA689B7892C93A089B1898C910D
:10027000837080648C93938D848D981306C002885C
:10028000F389E02D80818F7D80830895EF92FF9226
:100290000F931F93CF93DF93EC0181E0888F9B8DA9
:1002A0008C8D98131AC0E889F989808185FF15C063
:1002B0009FB7F894EE89FF896083E889F989808186
:1002C0008370806480839FBF81E090E0DF91CF9155
:1002D0001F910F91FF90EF900895F62E0B8D10E077
:1002E0000F5F1F4F0F731127E02E8C8D8E110CC0E6
:1002F0000FB607FCFACFE889F989808185FFF5CF31
:10030000CE010E942401F1CFEB8DEC0FFD2FF11DEA
:10031000E35AFF4FF0829FB7F8940B8FEA89FB896D
:1003200080818062CFCFCF93DF93EC01888D8823CB
:10033000B9F0AA89BB89E889F9898C9185FD03C048
:10034000808186FD0DC00FB607FCF7CF8C9185FF2D
:10035000F2CF808185FFEDCFCE010E942401E9CF4D
:10036000DF91CF91089590E0FC01E859FF4F24916F
:10037000FC01EC55FF4F3491FC01E057FF4FE49135
:10038000EE23C9F0222339F0233001F1A8F4213003
:1003900019F1223029F1F0E0EE0FFF1FE458FF4F72
:1003A000A591B4918FB7F894EC91611126C0309566
:1003B0003E233C938FBF08952730A9F02830C9F021
:1003C000243049F7809180008F7D03C080918000A8
:1003D0008F7780938000DFCF84B58F7784BDDBCFAC
:1003E00084B58F7DFBCF8091B0008F778093B00074
:1003F000D2CF8091B0008F7DF9CF3E2BDACF8F9294
:100400009F92AF92BF92FF920F931F93CF93DF9370
:10041000FC01F0808BE08F1508F44AC0828108E56A
:1004200012E0081B110987FD1395000F111F000F23
:10043000111F8181C8E8D0E0C81BD10987FDD39581
:10044000CC0FDD1FCC0FDD1F4E010D2E000CAA08B6
:10045000BB089801012E000C440B550B28193909D3
:100460004A095B09DB010E94F60624EB30E040E01C
:1004700050E00E94CC06820E931EA41EB51E8C1660
:100480009D062CF0E801801691060CF4E4012297F9
:10049000CC0FDD1F2FB7F8948F2D90E0FC01EE0FED
:1004A000FF1FE80FF91FE35CFD4FD283C1832FBF0D
:1004B000DF91CF911F910F91FF90BF90AF909F90D0
:1004C0008F900895892B79F41092800082E08093B8
:1004D00081001092850010928400B19A80916F0083
:1004E000826080936F000895EC01BE0185E692E082
:1004F0000E94FF01BE0182E692E00E94FF010E947D
:100500005B044B015C0184E6C82ED12CE12CF12C5C
:100510000E945B04681979098A099B09683E734047
:1005200081059105A8F321E0C21AD108E108F1087C
:1005300088EE880E83E0981EA11CB11CC114D10462
:10054000E104F10429F7D1CF42E050E068E171E025
:1005500080EA91E00C94A600CF93DF93FC01019018
:100560000020E9F73197AF01481B590BBC0180EA25
:1005700091E00E94A600EC010E94A4028C0F9D1F36
:10058000DF91CF910895CF93DF93EC01888199811A
:10059000009711F00E941408198218821D821C8293
:1005A0001B821A82DF91CF9108950F931F93CF93EF
:1005B000DF93EC0188819981009759F02A813B8172
:1005C0002617370730F081E0DF91CF911F910F910F
:1005D00008958B016F5F7F4F0E949D08009759F02F
:1005E000998388831B830A832C813D81232B59F7B0
:1005F000FC011082E8CF80E0E7CF1F920F920FB688
:100600000F9211242F933F934F935F936F937F9398
:100610008F939F93AF93BF93EF93FF9380EA91E003
:100620000E942401FF91EF91BF91AF919F918F9113
:100630007F916F915F914F913F912F910F900FBEDE
:100640000F901F9018951F920F920FB60F921124C2
:100650002F938F939F93EF93FF93E091B001F091CD
:10066000B1018081E091B601F091B70182FD1BC01C
:1006700090818091B9018F5F8F732091BA018217A9
:1006800041F0E091B901F0E0E056FE4F958F809384
:10069000B901FF91EF919F918F912F910F900FBE14
:1006A0000F901F9018958081F4CF1F920F920FB674
:1006B0000F9211242F933F938F939F93AF93BF93E8
:1006C0008091980190919901A0919A01B0919B011C
:1006D0003091970123E0230F2D3758F50196A11D86
:1006E000B11D209397018093980190939901A09355
:1006F0009A01B0939B0180919C0190919D01A091E2
:100700009E01B0919F010196A11DB11D80939C0196
:1007100090939D01A0939E01B0939F01BF91AF91D3
:100720009F918F913F912F910F900FBE0F901F902F
:10073000189526E8230F0296A11DB11DD2CF1F9256
:100740000F920FB60F9211242F933F934F935F9305
:100750006F937F938F939F93AF93BF93CF93DF93C9
:10076000EF93FF9380919601C0916102D0E087FFE3
:1007700024C01092850010928400809196018F5FB2
:100780008093960180919601082E000C990B8C178E
:100790009D0724F4809196018C30C4F180918400EF
:1007A00090918500049680349C4908F47AC0809129
:1007B000840090918500049676C080919601082E61
:1007C000000C990B8C179D07C4F6E09196018E2FB3
:1007D000EE0F990BFC01EE0FFF1FE80FF91FE35C12
:1007E000FD4F808186FFC9CFE09196018E2FEE0FDD
:1007F000990BFC01EE0FFF1FE80FF91FE35CFD4FA3
:10080000808160E08F730E94B301B7CF2091840094
:1008100030918500E09196018E2FEE0F990BFC012F
:10082000EE0FFF1FE80FF91FE35CFD4F81819281FE
:10083000820F931F9093890080938800E091960126
:100840008E2FEE0F990BFC01EE0FFF1FE80FF91F23
:10085000E35CFD4F808186FF11C0E09196018E2FF1
:10086000EE0F990BFC01EE0FFF1FE80FF91FE35C81
:10087000FD4F808161E08F730E94B301FF91EF9182
:10088000DF91CF91BF91AF919F918F917F916F91A8
:100890005F914F913F912F910F900FBE0F901F903E
:1008A000189580E49CE990938900809388008FEFED
:1008B00080939601E3CF3FB7F89480919C0190918B
:1008C0009D01A0919E01B0919F0126B5A89B05C0F6
:1008D0002F3F19F00196A11DB11D3FBFBA2FA92FBF
:1008E000982F8827BC01CD01620F711D811D911DBC
:1008F00042E0660F771F881F991F4A95D1F7089528
:100900001092A3011092A20188EE93E0A0E0B0E063
:100910008093A4019093A501A093A601B093A70191
:100920008AE091E09093A1018093A00185EC90E092
:100930009093AD018093AC0184EC90E09093AF0173
:100940008093AE0180EC90E09093B1018093B00170
:1009500081EC90E09093B3018093B20182EC90E03F
:100960009093B5018093B40186EC90E09093B70129
:100970008093B6011092B9011092BA011092BB0196
:100980001092BC01809161028C3048F591E0980F83
:10099000909361028093650290E0FC01EE0FFF1FCF
:1009A000E80FF91FE35CFD4F88EB9BE092838183A6
:1009B000809161028C30B8F491E0980F90936102BD
:1009C0008093620290E0FC01EE0FFF1FE80FF91F19
:1009D000E35CFD4F88EB9BE09283818308958FEF6A
:1009E00080936502E5CF8FEF809362020895CF93E5
:1009F000DF93CDB7DEB72C970FB6F894DEBF0FBEEE
:100A0000CDBF789484B5826084BD84B5816084BD97
:100A100085B5826085BD85B5816085BD80916E009C
:100A2000816080936E0010928100809181008260CD
:100A3000809381008091810081608093810080910A
:100A400080008160809380008091B10084608093F9
:100A5000B1008091B00081608093B00080917A00F5
:100A6000846080937A0080917A00826080937A001B
:100A700080917A00816080937A0080917A0080680A
:100A800080937A001092C100E091B001F091B10121
:100A900082E08083E091AC01F091AD011082E091A1
:100AA000AE01F091AF018FEC80831092B801E0911C
:100AB000B401F091B50186E08083E091B201F0913C
:100AC000B301808180618083E091B201F091B30134
:100AD000808188608083E091B201F091B3018081D0
:100AE00080688083E091B201F091B30180818F7DB5
:100AF0008083809165028C3008F042C089E00E94BA
:100B0000870080916502282F30E0F901EE0FFF1F6A
:100B1000E20FF31FE35CFD4F9081907C996090831E
:100B200010926602109267022CE0622F0E94660704
:100B300090E0829FB001112430E020E0AB01420F31
:100B4000531FFA01EE0FFF1FE40FF51FE35CFD4F8B
:100B5000408146FD07C02F5F3F4F2C30310571F7B4
:100B60000E946202E09165028E2F90E0FC01EE0F80
:100B7000FF1FE80FF91FE35CFD4F808180648083D5
:100B800080916502811178C08BE191E00E94AC02F6
:100B9000809162028C3008F042C08AE00E94870097
:100BA00080916202282F30E0F901EE0FFF1FE20F63
:100BB000F31FE35CFD4F9081907C9A6090831092CC
:100BC0006302109264022CE0622F0E94660790E09C
:100BD000829FB001112430E020E0AB01420F531F8F
:100BE000FA01EE0FFF1FE40FF51FE35CFD4F40819C
:100BF00046FD07C02F5F3F4F2C30310571F70E9433
:100C00006202E09162028E2F90E0FC01EE0FFF1F66
:100C1000E80FF91FE35CFD4F808180648083809141
:100C2000620281112CC08FE491E00E94AC026AE55F
:100C300070E085E692E00E94FF016AE570E082E6DE
:100C400092E00E94FF018E01095F1F4F80E0C82ED5
:100C500080E0D82E80EA91E00E940401181619065F
:100C60000CF077C080EA91E00E94E200823451F4F7
:100C700084EB90E00E94740282E391E087CF86E6E5
:100C800091E0D3CF8E3419F490E080E0F3CF1A8254
:100C900019821C821B821E821D828F831886F80196
:100CA00001900020E9F731977F01E01AF10AB701BE
:100CB000CE0101960E94D502811157C0CE01019646
:100CC0000E94C30218861F821A8619861C861B86FC
:100CD00062E170E0C8010E94D50281114EC0C801D6
:100CE0000E94C302A980BA80A114B10409F450C0C3
:100CF000ED80FE80E114F104B1F08B859C85E80E57
:100D0000F91EB701C8010E94D502882309F440C02A
:100D10002F8138858B859C85B501820F931F0E949A
:100D20006309FC86EB864B855C856F81788580EA5C
:100D300091E00E94A6000E94A4028F8198850097EE
:100D400011F00E94140889819A81009711F00E9485
:100D50001408C114D10409F47DCF0E941001882326
:100D600009F478CF0E94000075CFFE82ED82B801B1
:100D700089819A810E946309A5CF82E190E09C87D6
:100D80008B8763E871E08F8198850E946309AACF01
:100D9000C8010E94C302C7CF052E97FB1EF4009422
:100DA0000E94E30657FD07D00E94350707FC03D0D9
:100DB0004EF40C94E30650954095309521953F4FA5
:100DC0004F4F5F4F089590958095709561957F4F37
:100DD0008F4F9F4F08950E945707A59F900DB49F76
:100DE000900DA49F800D911D11240895B7FF0C94C0
:100DF000EB060E94EB06821B930B08952F923F9205
:100E00004F925F926F927F928F929F92AF92BF921A
:100E1000CF92DF92EF92FF920F931F93CF93DF93C6
:100E2000CDB7DEB7CA1BDB0B0FB6F894DEBF0FBE23
:100E3000CDBF09942A88398848885F846E847D8470
:100E40008C849B84AA84B984C884DF80EE80FD8072
:100E50000C811B81AA81B981CE0FD11D0FB6F894E8
:100E6000DEBF0FBECDBFED010895A1E21A2EAA1B71
:100E7000BB1BFD010DC0AA1FBB1FEE1FFF1FA2174A
:100E8000B307E407F50720F0A21BB30BE40BF50B47
:100E9000661F771F881F991F1A9469F760957095D0
:100EA000809590959B01AC01BD01CF010895A29F53
:100EB000B001B39FC001A39F700D811D1124911D2E
:100EC000B29F700D811D1124911D0895991B79E029
:100ED00004C0991F961708F0961B881F7A95C9F7CA
:100EE00080950895EE0FFF1F0590F491E02D099471
:100EF0000F931F93CF93DF938230910510F482E01C
:100F000090E0E0916A02F0916B0230E020E0B0E006
:100F1000A0E0309799F42115310509F44AC0281B47
:100F2000390B24303105D8F58A819B816115710513
:100F300089F1FB0193838283FE0111C040815181BD
:100F40000281138148175907E0F04817590799F4AF
:100F5000109761F012960C93129713961C93329689
:100F6000CF01DF91CF911F910F91089500936A02F5
:100F700010936B02F4CF2115310551F0421753073E
:100F800038F0A901DB019A01BD01DF01F801C1CFF1
:100F9000EF01F9CF90936B0280936A02CDCFFE01EF
:100FA000E20FF31F819391932250310939832883F3
:100FB000D7CF2091680230916902232B41F4209110
:100FC000020130910301309369022093680220915D
:100FD0000001309101012115310541F42DB73EB7D3
:100FE0004091040150910501241B350BE0916802EA
:100FF000F0916902E217F307A0F42E1B3F0B2817AC
:10100000390778F0AC014E5F5F4F2417350748F081
:101010004E0F5F1F50936902409368028193919332
:101020009FCFF0E0E0E09CCFCF93DF930097E9F013
:10103000FC01329713821282A0916A02B0916B0276
:10104000ED0130E020E01097A1F420813181820F82
:10105000931F20916802309169022817390709F01F
:1010600061C0F0936902E0936802DF91CF91089527
:10107000EA01CE17DF07E8F54A815B819E01411541
:101080005105B1F7E901FB83EA8349915991C40FF6
:10109000D51FEC17FD0761F4808191810296840FC2
:1010A000951FE90199838883828193819B838A8339
:1010B000F0E0E0E012968D919C9113970097B9F5BE
:1010C0002D913C911197CD010296820F931F209193
:1010D0006802309169022817390739F6309751F5BF
:1010E00010926B0210926A02B0936902A093680298
:1010F000BCCFD383C28340815181840F951FC81711
:10110000D90761F44E5F5F4F88819981480F591F5D
:10111000518340838A819B8193838283211531058A
:1011200009F0B0CFF0936B02E0936A029ECFFD010D
:10113000DC01C0CF13821282D7CFB0E0A0E0E3EA97
:10114000F8E00C9400078C01009751F4CB010E9449
:1011500078078C01C801CDB7DEB7E0E10C941C071D
:10116000FC01E60FF71F9C0122503109E217F3073B
:1011700008F49DC0D901CD91DC911197C617D7070E
:1011800098F0C530D10530F3CE0104978617970744
:1011900008F3C61BD70B2297C193D1936D937C9311
:1011A000CF010E941408D6CF5B01AC1ABD0A4C01D6
:1011B0008C0E9D1EA0916A02B0916B02512C412CA5
:1011C000F12CE12C109731F5809168029091690221
:1011D0008815990509F05CC04616570608F058C0F6
:1011E0008091000190910101009741F48DB79EB765
:1011F0004091040150910501841B950BE817F907F4
:1012000008F055C0F0936902E0936802F901718318
:101210006083A0CF8D919C91119712966C9012973C
:1012200013967C901397A815B90559F56C0142E007
:10123000C40ED11CCA14DB0420F1AC014A195B09AD
:10124000DA011296159780F062827382518340838F
:10125000D9016D937C93E114F10471F0D7011396D9
:10126000FC93EE93129776CF22968C0F9D1FF90177
:1012700091838083F301EFCFF0936B02E0936A02D6
:1012800069CF4816590608F42C017D01D3019ACF85
:10129000CB010E9478077C01009749F0AE01B801AC
:1012A0000E945A09C8010E941408870153CF10E018
:1012B00000E050CFFB01DC0102C001900D924150D3
:1012C0005040D8F70895FB01DC0101900D920020F9
:0812D000E1F70895F894FFCF47
:1012D80000006C028000000000004601A600D30058
:1012E80093010401E200F6000D0A004572726F7264
:1012F80020617474616368696E6720736572766FC4
:101308003100536572766F3120617474616368656A
:1013180064207375636365737366756C6C790045D7
:1013280072726F7220617474616368696E6720738A
:101338006572766F3200536572766F32206174740D
:101348006163686564207375636365737366756C40
:101358006C7900436F6D6D616E64207265636569B9
:061368007665643A2000E6
:00000001FF
